{
  "contractName": "EventEmitter",
  "abi": [
    {
      "constant": true,
      "inputs": [],
      "name": "testString",
      "outputs": [
        {
          "name": "",
          "type": "string"
        }
      ],
      "payable": false,
      "stateMutability": "view",
      "type": "function"
    },
    {
      "inputs": [],
      "payable": false,
      "stateMutability": "nonpayable",
      "type": "constructor"
    },
    {
      "anonymous": false,
      "inputs": [
        {
          "indexed": false,
          "name": "queryString",
          "type": "string"
        },
        {
          "indexed": false,
          "name": "oracleAddress",
          "type": "address"
        }
      ],
      "name": "Query",
      "type": "event"
    },
    {
      "constant": false,
      "inputs": [],
      "name": "fireTestEvent",
      "outputs": [],
      "payable": false,
      "stateMutability": "nonpayable",
      "type": "function"
    },
    {
      "constant": false,
      "inputs": [
        {
          "name": "queryString",
          "type": "string"
        },
        {
          "name": "oracleAddress",
          "type": "address"
        }
      ],
      "name": "fireEvent",
      "outputs": [],
      "payable": false,
      "stateMutability": "nonpayable",
      "type": "function"
    },
    {
      "constant": false,
      "inputs": [
        {
          "name": "response",
          "type": "string"
        }
      ],
      "name": "callBack",
      "outputs": [],
      "payable": false,
      "stateMutability": "nonpayable",
      "type": "function"
    },
    {
      "constant": false,
      "inputs": [],
      "name": "getString",
      "outputs": [
        {
          "name": "_testString",
          "type": "string"
        }
      ],
      "payable": false,
      "stateMutability": "nonpayable",
      "type": "function"
    }
  ],
  "bytecode": "0x60606040526040805190810160405280600d81526020017f696e697469616c2076616c7565000000000000000000000000000000000000008152506000908051906020019061004f929190610060565b50341561005b57600080fd5b610105565b828054600181600116156101000203166002900490600052602060002090601f016020900481019282601f106100a157805160ff19168380011785556100cf565b828001600101855582156100cf579182015b828111156100ce5782518255916020019190600101906100b3565b5b5090506100dc91906100e0565b5090565b61010291905b808211156100fe5760008160009055506001016100e6565b5090565b90565b610647806101146000396000f30060606040526004361061006d576000357c0100000000000000000000000000000000000000000000000000000000900463ffffffff16806389ea642f14610072578063d4e5cb8714610100578063ed9c318614610115578063ee27b8dc14610172578063fb8f0f59146101ee575b600080fd5b341561007d57600080fd5b61008561027c565b6040518080602001828103825283818151815260200191508051906020019080838360005b838110156100c55780820151818401526020810190506100aa565b50505050905090810190601f1680156100f25780820380516001836020036101000a031916815260200191505b509250505060405180910390f35b341561010b57600080fd5b610113610324565b005b341561012057600080fd5b610170600480803590602001908201803590602001908080601f016020809104026020016040519081016040528093929190818152602001838380828437820191505050505050919050506103d6565b005b341561017d57600080fd5b6101ec600480803590602001908201803590602001908080601f0160208091040260200160405190810160405280939291908181526020018383808284378201915050505050509190803573ffffffffffffffffffffffffffffffffffffffff169060200190919050506103f0565b005b34156101f957600080fd5b6102016104c4565b6040518080602001828103825283818151815260200191508051906020019080838360005b83811015610241578082015181840152602081019050610226565b50505050905090810190601f16801561026e5780820380516001836020036101000a031916815260200191505b509250505060405180910390f35b610284610562565b60008054600181600116156101000203166002900480601f01602080910402602001604051908101604052809291908181526020018280546001816001161561010002031660029004801561031a5780601f106102ef5761010080835404028352916020019161031a565b820191906000526020600020905b8154815290600101906020018083116102fd57829003601f168201915b5050505050905090565b7ff5e34b0e294d787f3002ce1c63803333f473ca01ba11cab5b9f9fd1e82dead6b73b6175d90ec8aeb7419cbe4359c1d2c015784954760405180806020018373ffffffffffffffffffffffffffffffffffffffff1673ffffffffffffffffffffffffffffffffffffffff1681526020018281038252600f8152602001807f42494e414e43452d4254432d45544800000000000000000000000000000000008152506020019250505060405180910390a1565b80600090805190602001906103ec929190610576565b5050565b7ff5e34b0e294d787f3002ce1c63803333f473ca01ba11cab5b9f9fd1e82dead6b828260405180806020018373ffffffffffffffffffffffffffffffffffffffff1673ffffffffffffffffffffffffffffffffffffffff168152602001828103825284818151815260200191508051906020019080838360005b8381101561048557808201518184015260208101905061046a565b50505050905090810190601f1680156104b25780820380516001836020036101000a031916815260200191505b50935050505060405180910390a15050565b60008054600181600116156101000203166002900480601f01602080910402602001604051908101604052809291908181526020018280546001816001161561010002031660029004801561055a5780601f1061052f5761010080835404028352916020019161055a565b820191906000526020600020905b81548152906001019060200180831161053d57829003601f168201915b505050505081565b602060405190810160405280600081525090565b828054600181600116156101000203166002900490600052602060002090601f016020900481019282601f106105b757805160ff19168380011785556105e5565b828001600101855582156105e5579182015b828111156105e45782518255916020019190600101906105c9565b5b5090506105f291906105f6565b5090565b61061891905b808211156106145760008160009055506001016105fc565b5090565b905600a165627a7a7230582023407f929d7f2e547dfcd8985f9d4a4a1545c1dcd56c6dba3238f8fbb1d40f100029",
  "source": "pragma solidity ^0.4.17;\n\ncontract EventEmitter{\n    \n    event Query(string queryString, address oracleAddress);\n\n    string public testString = \"initial value\";\n\n    function EventEmitter(){\n        \n    }\n\n    function fireTestEvent(){\n        Query('BINANCE-BTC-ETH', 0xB6175d90EC8aEb7419cbE4359C1d2c0157849547);\n    }\n    \n    function fireEvent(string queryString, address oracleAddress){\n        Query(queryString, oracleAddress);\n    }\n    \n    function callBack(string response){\n        testString = response;    \n    }\n    \n    function getString() returns(string _testString){\n        return testString;\n    }\n}\n",
  "sourcePath": "/Users/krisspujats/WebstormProjects/playground/feb_oracle_hackathon/local_deploy/contracts/EventEmitter.sol",
  "compiler": {
    "name": "solc",
    "version": "0.4.19+commit.c4cbbb05.Emscripten.clang"
  },
  "schemaVersion": "1.0.1",
  "updatedAt": "2018-02-11T12:40:16.091Z"
}